:030000000208A94A
:0C08A900787FE4F6D8FD7581640208F049
:100AA700253032642D253032642D253032642D25D2
:100AB7003032642D253032642D00253032642D25E7
:100AC7003032642D253032642D253032642D2530A7
:080AD7003264204F4B0D0A00B0
:060B4B00011F00011E0065
:0C0ECB007FBF7EE77D01DDFEDEFADFF672
:010ED70022F8
:0C0ED8007F647E647D01DDFEDEFADFF643
:010EE40022EB
:080FBF007F647E01DEFEDFFA13
:010FC7002207
:100D730053D1FB43D10275D4FF75D5D043D108437A
:090D8300AC4043AC1043AF082260
:0A0F7900751F018FADE51F70FC220B
:0A0F8300751F018FADE51F70FC2201
:100BA4008B418A428943AB41AA42A9431206216080
:100BB400160543E5437002054214F9120621FF129B
:080BC4000F83120FBF80DF2236
:100DEC00E4F594F593F592F591F596F595F5B2F544
:060DFC00B1F5B4F5B322CD
:1003EA00E4F529F52AF53FF540120DEC120EA1129B
:1003FA000FE5120FD9120D3F12002E120D73D2AF54
:10040A00E52A701420A711120ECB752A01FF120DCE
:10041A008CE4FF120DA58015E52AB40110A2A740AD
:10042A0003D38001C34006120ECBE4F52A120F193A
:10043A008F26120F25AD07EDFEE526FBEEF524EB20
:10044A00F525ED54F0C4540F75F00AA4FFED540FCE
:10045A002FF528E52654F0C4540F75F00AA4FFE5D9
:10046A0026540F2FF527E4F53DE53DB40800400377
:10047A00020598900484F828287302049C0204BB9D
:10048A000204DA0204F902051802053602055B02C3
:10049A00057CC285C286C2A6E4F53E120B158E2DD6
:1004AA008F2E120ED8053EE53EC3940A40ED020592
:1004BA0098D285C286C2A6E4F53E120B158E2F8FFE
:1004CA0030120ED8053EE53EC3940A40ED02059867
:1004DA00C285D286C2A6E4F53E120B158E318F3242
:1004EA00120ED8053EE53EC3940A40ED020598D2A5
:1004FA0085D286C2A6E4F53E120B158E338F3412CE
:10050A000ED8053EE53EC3940A40ED020598C28521
:10051A00C286D2A6E4F53E120B158E358F36120E20
:10052A00D8053EE53EC3940A40ED8062D285C28674
:10053A00D2A6E4F53E120B158E378F38120ED80567
:10054A003EE53EC3940A40EDAF38AE37120A6C80DE
:10055A003DC285D286D2A6120ECBE4F53E120B1509
:10056A008E398F3A120ED8053EE53EC3940A40ED05
:10057A00801CD285D286D2A6E4F53E120B158E3B9C
:10058A008F3C120ED8053EE53EC3940A40ED053D68
:10059A00E53DC3940850030204737544FF75450A88
:1005AA007546A7852D47852E48852F4985304A856A
:1005BA00314B85324C85334D85344E85354F8536E2
:1005CA00507B017A0079001200EA7544FF75450AEA
:1005DA007546C1853747853848853949853A4A85F8
:1005EA003B4B853C4C754D0085284E754F00852741
:1005FA00507B017A00793C1200EA20A51530A4123A
:10060A007B017A007900120BA47B017A00793C12F3
:07061A000BA4B28702040AE1
:03008B00020CACB8
:100CAC00C0E0E5AC30E10853ACFD751F00800EE5EB
:100CBC00AC30E00953ACFE85AD1D751E01D0E032A1
:100E2B003F065B4F666D7D077F6F777C395E79710F
:030E3B00008040F4
:100B5100041400000000011800011100021200003D
:0A0F8D00C2C5EF24FF9282D2C522F4
:100A2A00C2910511E511B40403E4F511E4FEEEB533
:100A3A001104E4FF80027F01120F8D0EBE04EF74D1
:100A4A00142511F8E6FDE4FEED5480C41313135483
:100A5A0001FF120F8DED25E0FD0EBE08EBD291C20B
:010A6A00C7C4
:010A6B002268
:04093500AB07AA065C
:100939007C037DE812064C8F1C7C037DE8AF03AE77
:100949000212064C7E007F64CFCDCFCECCCE1206EC
:100959004C8F1B7C007D64AF03AE0212064C7E00F7
:100969007F0ACFCDCFCECCCE12064C8F1A7C007D1C
:100979000AAF03AE0212064C8D197F0374192FF8C2
:10098900E670047610DFF57F03D3EB940FEA942722
:100999004006900E3DE4800874192FF8E6900E2B5E
:1009A90093FE74142FF8A6061FC3EF648094805039
:0109B900D865
:0109BA00221A
:100B7B00755810755710EFC4540FF556EF540FF509
:100B8B0055E558900E2B93F517E55793F516E5564B
:080B9B0093F515E55593F514DF
:010BA300222F
:040A6C00AD07AC0620
:100A7000ECC4540FF544EC540FF543ECC4F854F0B7
:100A8000C8EDC4540F48540FF542EF540FF541E53B
:100A900044900E2B93F517E54393F516E54293F535
:060AA00015E54193F51479
:010AA600222D
:0A0F9700E4F517F516F515F5142220
:100E1700EFD39403500D74142FF8E6FF900E3CE4C3
:040E2700934FF622CD
:0E0EA1005389FC758CDCE4F58AD2A9D28C2230
:03000B00020ADF07
:0F0ADF00C0E0C0D075D000C000C005C006C00781
:100AEE000513E51370020512120A2AE51364C845B0
:0A0AFE00127007F512F513751801C8
:0D0B0800D007D006D005D000D0D0D0E0320C
:0D0EE500E5186006E4F5187F01227F002269
:100B6100020E0000011000040800000000020C0049
:010B71000083
:0C0EF2007F0B7EFADEFEDFFA7F01DFFEE0
:010EFE0022D1
:100E3E00C2AD759DC1E4F5BDEF4488F5BC120EF24E
:030E4E00D2AD2200
:03002B0002081AAE
:10081A00C0E0C0F0C083C082C0D075D000C000C0A4
:0D082A0001C002C003C004C005C006C00725
:1008370053BCEFAFBDE4FCFDFEE50B2FF50BEE352A
:100847000AF50AED3509F509EC3508F508050DE552
:100857000D7002050C640A450C7029F50CF50D7B2B
:100867000AFAF9F8AF0BAE0AAD09AC081207138EF6
:100877000E8F0F751001750B00750A00750900754D
:070887000800800343BC08D8
:10088E00D007D006D005D004D003D002D001D000BE
:0B089E00D0D0D082D083D0F0D0E03268
:0D0EFF00E5106006E4F5107F01227F00225F
:050FE000AE0EAF0F2270
:010FE80022E6
:0B0F19007D027FA2120E92EF547FFFBA
:010F240022AA
:0B0F25007D037FA2120E92EF547FFFAD
:010F3000229E
:0B0F31007D047FA2120E92EF543FFFE0
:010F3C002292
:0B0F3D007D057FA2120E92EF543FFFD3
:010F48002286
:0B0F49007D067FA2120E92EF5407FFFE
:010F5400227A
:0B0F55007D077FA2120E92EF541FFFD9
:010F6000226E
:100C1A007D077FA2120E92EF5480600575632080D3
:100C2A00037563197564007D087FA2120E92EF4264
:050C3A0064AE63AF642D
:010C3F002292
:100D8C00EF75F00A84C454F0FEEF75F00A84E5F0B8
:090D9C004EFB7D027FA2020EAFA6
:100DA500EF75F00A84C454F0FEEF75F00A84E5F09F
:090DB5004EFB7D037FA2020EAF8C
:070F6100D2C3120F68C2C3E6
:040F68007F13DFFE16
:010F6C002262
:030FE500020C9B60
:100E5100D2C4D2C3120F68C2C4120F68C2C3020F38
:010E61006828
:100C8A004401FF120CCC120018120CEAAE07120F24
:010C9A006DEC
:100C9B00C2C4D2C3120F68D2C4120F68C2C3020FF0
:010CAB0068E0
:0A0FA100C2C4120F61D2C4020F682F
:0C0F6D00D2C4D2C3120F68C2C3020F68C6
:0A000E00AE07120E51AF06120CCC23
:10001800E4FED2C3120F6830C4010EC2C3120F68C7
:02002800AF0621
:01002A0022B3
:020CCC00AE0771
:100CCE00E4FDEE30E704D2C48002C2C4120F61EE1E
:0C0CDE0025E0FE0DBD08EBD2C4020F683B
:100CEA00E4FDD2C3120F68EE25E0FE30C4034306CA
:0C0CFA0001C2C3120F680DBD08E8AF0670
:010D060022CA
:040DBE00AB05AA04D3
:100DC20012000EAF02120CCC120018AF03120CCCA0
:030DD20002001804
:0D0F0C00AC0512000EAF04120CCC02001850
:100E7300A903120DBEAF01120CCC120018020C9B79
:0E0EAF00120F0CAF03120CCC120018020C9B99
:020E8300A907BD
:0C0E8500120DBE120E51E9120C8AAF06CD
:010E9100223E
:020E9200AB07AC
:0C0E9400120F0C120E51EB120C8AAF066C
:010EA000222F
:080B720002590800025B0001BA
:100D0700758921759850758DFD758BFDE4F58CF50A
:0C0D17008AD28CD2A9D28ED299D2AF22FF
:080FC8007FB47E49DEFEDFFC70
:010FD00022FE
:0F0DD5007E00CFCDCFCECCCE1206A1EF2430FFC3
:080DE4008F993099FDC299229C
:1009BB00AB07AA06C3EA6480948050127F2D120DF8
:1009CB00E47CFF7DFFAF0312063AAA06AB077C035C
:1009DB007DE8AF03AE02120DDD7F2E120DE47C031A
:1009EB007DE8AF03AE021206A17F64120DD57C0029
:1009FB007D64AF03AE021206A17F0A120DD5AE02C3
:100A0B00AF037C007D0A1206A1ED2430FF120DE42A
:0F0A1B007F56120DE47F0D120DE47F0A020DE4E9
:100D3F00120FAB7F90120D237F01120E027F8012D4
:0A0D4F000D237F01120E02020FB502
:10002E00E47023601B24FC601224FC600924FC7025
:10003E0015755980800D75594080087559208003BB
:10004E00755908755A00E47028146011146015145F
:10005E0060192403701B755B00755C0122755B00D3
:10006E00755C0222755B00755C0422755B00755C25
:02007E00082256
:100B1500120FAB7F93120D23120D59EF70FA120CC1
:100B2500407541008F42E542754200F541E4FF12F0
:100B35000E02120C40EF4242E47F01120E02120F28
:050B4500B5AE41AF4216
:010B4A002288
:0700030092C112000AD2C0F5
:01000A0022D3
:0D0EBD00EFD3940040077E6EDEFE1F80F331
:010ECA002205
:070FD900D2C1D2C002000AE0
:0A0FAB00D2C1120005C2C102000A03
:0A0FB500C2C1120005D2C102000AF9
:100E0200C2C012000AEF24FF120003C2C012000A7D
:050E1200D2C102000A3C
:100D5900D2C012000A30C10FC2C07F01120EBDD22B
:0A0D6900C030C1057F01227F002287
:100D2300E4FEEF25E0FFC2C012000A1200030EBE6C
:0C0D330008F0C2C012000AD2C102000A7F
:100C4000C2C012000AD2C112000AE4FED2C01200D1
:100C50000AEF25E0FDA2C1E4334DFFC2C012000A35
:040C60000EBE08E8D4
:010C6400226D
:100E6200759850758920758B20758DFED2ACD28E07
:010E7200225D
:080FD1008F993099FDC29922AD
:100BCC008B5D8A5E895FAB5DAA5EA95F12062160B0
:100BDC0015055FE55F7002055E14F9120621FF1220
:070BEC000FD1B28780E02267
:0B0080008F9BE59A30E1FB539AFD22B4
:100C65008B608A618962AB60AA61A9621206216004
:100C7500130562E5627002056114F9120621FF127F
:050C8500008080E22266
:1008B5000203EAE493A3F8E493A34003F68001F26C
:1008C50008DFF48029E493A3F85407240CC8C33344
:1008D500C4540F4420C8834004F456800146F6DF13
:1008E500E4800B0102040810204080900B4BE47E4D
:1008F500019360BCA3FF543F30E509541FFEE49308
:10090500A360010ECF54C025E060A840B8E493A3CE
:10091500FAE493A3F8E493A3C8C582C8CAC583CAF9
:10092500F0A3C8C582C8CAC583CADFE9DEE780BEB1
:010B7A00007A
:10062100BB010689828A83E0225002E722BBFE02D7
:09063100E32289828A83E493220A
:10063A00EF8DF0A4A8F0CF8CF0A428CE8DF0A42ED4
:02064A00FE228E
:10064C00BC000BBE0029EF8DF084FFADF022E4CC92
:10065C00F875F008EF2FFFEE33FEEC33FCEE9DEC5B
:10066C00984005FCEE9DFE0FD5F0E9E4CEFD22EDA1
:10067C00F8F5F0EE8420D21CFEADF075F008EF2FEB
:10068C00FFED33FD4007985006D5F0F222C398FDDC
:05069C000FD5F0EA2279
:1006A100C2D5EC30E709B2D5E4C39DFDE49CFCEE74
:1006B10030E715B2D5E4C39FFFE49EFE12064CC39A
:1006C100E49DFDE49CFC800312064C30D507C3E495
:0606D1009FFFE49EFE22E3
:1006D70075F008758200EF2FFFEE33FECD33CDCCDA
:1006E70033CCC58233C5829BED9AEC99E58298405D
:1006F7000CF582EE9BFEED9AFDEC99FC0FD5F0D63A
:10070700E4CEFBE4CDFAE4CCF9A88222B800C1B963
:100717000059BA002DEC8BF084CFCECDFCE5F0CBA1
:10072700F97818EF2FFFEE33FEED33FDEC33FCEBDA
:1007370033FB10D703994004EB99FB0FD8E5E4F995
:10074700FA227818EF2FFFEE33FEED33FDEC33FC82
:10075700C933C910D7059BE99A4007EC9BFCE99A76
:10076700F90FD8E0E4C9FAE4CCFB2275F010EF2FBB
:10077700FFEE33FEED33FDCC33CCC833C810D707BB
:100787009BEC9AE899400AED9BFDEC9AFCE899F8F6
:0E0797000FD5F0DAE4CDFBE4CCFAE4C8F92289
:10008E00E5502444F8E605502278413007027844C2
:10009E00E475F0011207E40206212000EB7F2ED258
:1000AE00008018EF540F2490D43440D4FF30040B4A
:1000BE00EF24BFB41A0050032461FFE5516002150E
:1000CE00510554E5547002055330070D7841E4751F
:1000DE00F0011207E4EF0207D2020BF37403D2070A
:1000EE008003E4C207F5508B418A428943E4F551FF
:1000FE00F553F554E55160077F201200C980F57560
:10010E0052FFC201C200C202C203C205C206C20829
:10011E00120097FF700D3007057F001200DAAF5402
:10012E00AE5322B4255FC2D5C204120097FF24D06D
:10013E00B40A00501A75F00A785130D50508B6FF8A
:10014E000106C6A426F620D5047002D20380D92457
:10015E00CFB41A00EF5004C2E5D2040202DAD20183
:10016E0080C6D20080C0D20280BCD2D580BAD20561
:10017E0080B47F201200C92002077401B5510040DF
:10018E00F112008EFF1200C9020102D208D20680BF
:10019E009512008EFB12008EFA12008EF94A4B70E9
:1001AE000679AB7A037BFF20022EE551602A7E0092
:1001BE008E827583001207A560060EEE655270F0F2
:1001CE00C2D5EBC0E0EAC0E0E9C0E0EE120321D0F8
:1001DE00E0F9D0E0FAD0E0FB120621FF60AAEBC0F6
:1001EE00E0EAC0E0E9C0E01200C9D0E02401F9D095
:1001FE00E03400FAD0E0FBE5520460DCD552D98041
:10020E00877BFF7A03791DD202809C791080027958
:10021E0008C206C2088008D2D5790A8004790AC2BB
:10022E00D5E552047002F552E4FAFDFEFF12008E7F
:10023E00FC7B0820011312008EFD7B1030000A1289
:10024E00008EFE12008EFF7B20EC3382D592D550AD
:10025E0013C3E43000069FFFE49EFEE42001039DDD
:10026E00FDE49CFCE4CBF8C201EC700CCFCECDCCFF
:10027E00E824F8F870F38017C3EF33FFEE33FEED8A
:10028E0033FDEC33FCEB33FB994002FB0FD8E9EB6B
:10029E00300105F8D0E0C448B201C0E00AEC4D4E82
:1002AE004F78207B0070C2EAB5520040BCC0E0120D
:1002BE000323D0F0D0E0200104C4C0E0C4B201C0DA
:1002CE00F01200B2D0F0D5F0EB0201021207F401E9
:1002DE009F5302195801704C016C42021D4F0225AA
:0F02EE0044022549018543022B55020F46020F9A
:1002FD0045020F4703CB5001742D01782E019B2B26
:10030D00017C2301992003B42A0134480000019394
:10031D003F3F3F00790AA2D5200314300509B910DB
:10032D00020404B9080104A2D520060250010420DC
:10033D0002689202B551005034C0E07F203003199D
:10034D007F30A20272067205500F12037AC202C2EA
:10035D0006C205C2087F30800F300503E9C0E012E8
:10036D0000C9300503D0E0F9D0E0B551CC30051708
:10037D007F30B9100C1200C97F583004077F788088
:10038D0003B908031200C93002057F2D0200C97F91
:10039D00202008F87F2B2006F322920280CF286EB2
:1003AD00756C6C2900D20112008E3001F8C20178F3
:1003BD005130D50108F60201342D50434958120031
:1003CD008E2403B405004001E49003C6931200BAD5
:0D03DD00743A1200BAD203755104020219DD
:1007A500BB010CE58229F582E5833AF583E0225009
:1007B50006E92582F8E622BBFE06E92582F8E22253
:0D07C500E58229F582E5833AF583E493226D
:1007D200BB010689828A83F0225002F722BBFE0106
:0207E200F32200
:1007E400FAE6FB0808E6F925F0F618E6CA3AF62216
:1007F400D083D082F8E4937012740193700DA3A394
:1008040093F8740193F5828883E4737402936860A7
:06081400EFA3A3A380DFA7
:100BF300EFB40A07740D120BFE740A309811A8990A
:100C0300B8130CC2983098FDA899C298B811F63061
:070C130099FDC299F5992239
:00000001FF
